:100000000C9446000C9465000C9465000C946500FB
:100010000C9465000C9465000C9465000C946500CC
:100020000C9465000C9465000C9465000C946500BC
:100030000C9465000C9465000C9465000C946500AC
:100040000C9465000C9465000C9465000C9465009C
:100050000C9429050C9465000C9465000C946500C3
:100060000C9465000C9465000C9465000C9465007C
:100070000C9489050C9465000C9465000C94650043
:100080000C9465000C9465000C94650011241FBE4F
:10009000CFEFD0E4DEBFCDBF15E0A0E0B1E0E8E3F4
:1000A000F2E100E00BBF02C007900D92A036B1074D
:1000B000D9F72FE3A0E6B5E001C01D92A032B20748
:1000C000E1F70E94B1080C941A090C940000809189
:1000D000640590916505892BD1F3F89480916405AE
:1000E00090916505019790936505809364057894D8
:1000F0002091760630917706F901E858F94F808112
:100100002F5F3F4F243A98E3390729F03093770661
:100110002093760608951092770610927606089539
:100120000099FECF9091C80095FFFCCF8093CE0040
:10013000009BFECF08950E9467008334C9F058F4F5
:100140008233D1F018F48133C9F514C08333B1F090
:100150008234A1F527C08C34A9F018F4883471F5E5
:100160000FC08E3419F0853549F50FC087E80BC0F4
:1001700088E809C084E807C085E805C086E803C0B0
:1001800086E701C085E70C9490000E9467008133E8
:1001900021F48FEF809371050895803379F41092E4
:1001A000710508950E946700813321F48FEF8093D9
:1001B0006C050895803311F410926C050895CF9367
:1001C000E82FF0E0EE59FE4F90819F3F11F0892F0C
:1001D000AFC18C3509F46BC178F48E3309F446C095
:1001E00020F48C3309F0A7C11BC0803409F487C107
:1001F0008B3509F0A0C15FC08B3709F4D5C038F446
:100200008D3509F493C08E3509F095C107C08D373F
:1002100009F4EDC08E3709F08EC112C189E144C1E5
:1002200081E80E94900081E80E94900081E80E948D
:10023000900081E80E94900081E80E94900089E28D
:100240000E94900081E80E94900081E80E94900046
:1002500081E80E9490008BE20E949000C8E082E852
:100260000E949000C150D9F781E762C181E80E94E5
:10027000900081E80E94900081E80E94900081E84F
:100280000E94900081E80E9490008BE20E94900002
:1002900081E80E94900081E80E94900081E80E941D
:1002A000900089E20E949000C8E082E80E949000DD
:1002B000C150D9F7D9CF87E10E94900082E70E9410
:1002C0009000C6E081E80E949000C150D9F787E114
:1002D0000E949000C6E082E80E949000C150D9F7C9
:1002E00082E70E94900085EA0E94900082E00E94CE
:1002F000900083E60E94900085EA0E9490008EEFB5
:100300000E94900086E70E94900082E70E94900081
:1003100085EA0E94900082E00E94900083E60E949D
:10032000900085EA0E9490008EEF3AC087E10E941B
:10033000900082E70E949000C6E081E80E94900051
:10034000C150D9F787E10E949000C6E082E80E9480
:100350009000C150D9F782E70E94900085EA0E9480
:1003600090008EEF0E94900083E60E94900085EA44
:100370000E94900082E00E94900086E70E94900018
:1003800082E70E94900085EA0E9490008EEF0E9412
:10039000900083E60E94900085EA0E94900082E02F
:1003A0000E94900085E7C4C08DE10E94900082E722
:1003B0000E94900082E80E94900082E80E949000D3
:1003C00082E80E94900082E80E94900082E80E94E9
:1003D000900085EA0E9490008EEF0E94900083E6D4
:1003E0000E94900085EA0E94900082E022C08FE186
:1003F0000E94900082E70E94900082E80E94900094
:1004000082E80E94900082E80E94900082E80E94A8
:10041000900082E80E94900085EA0E94900082E0AD
:100420000E94900083E60E94900085EA0E9490005E
:100430008EEF0E94900081E80E94900081E86FC0DA
:1004400081E80E94900081E80E94900081E80E946B
:10045000900081E80E94900081E80E94900085EA67
:100460000E9490008DEF0E94900089E20E9490000F
:1004700085EA0E94900085E00E94900089E20E9437
:10048000900085EA0E9490008EEF0E94900082E822
:100490000E94900082E80E94900082E80E949000F2
:1004A00082E80E94900082E80E949000DDCE85EAFA
:1004B0000E94900083E00E94900083E60E949000DA
:1004C000C3E082E70E94900085EA0E9490008FEFCF
:1004D0000E94900082E80E94900082E80E949000B2
:1004E00082E80E94900083E60E949000C15049F784
:1004F000C9E081E80E949000C150D9F71CC080E299
:100500000E94900082E70E94900082E80E94900082
:1005100082E80E94900082E80E94900081E60E949A
:10052000900081E80E94900081E80E94900081E89C
:10053000CF910C949000CF9108959091C00095FFB9
:10054000FCCF8093C6000895F89480917405E82F3D
:10055000F0E0EA58FA4FE0818F5F80937405809154
:100560001F3F815080931F3F7894E73749F48DE017
:100570000E949D0280916605823049F48AE005C0A0
:10058000F0E0EE5FFE4F808181110C949D02089592
:10059000CF93DF93C0E016C089EA0E9490008D2FB0
:1005A0008C0F0E94900081E70E94900081E70E94DA
:1005B0009000DF5FDA3081F787E70E949000C65F26
:1005C000C83711F0D0E0E8CFDF91CF9108955D9A60
:1005D0003099FECF5D980895CF93C82F2091640580
:1005E000309165052A30310590F480916B058823A0
:1005F00049F080916A05823029F481E10E949D02D0
:1006000010926B0580916A05833009F417988091E8
:100610006805823021F48C2FCF910C949000C03269
:1006200020F18C2F0E94DF0080916C05882391F0CF
:1006300085EA0E94900081E00E94900082E70E947B
:1006400090008C2F0E94DF0085EA0E9490008FEFBF
:100650000E94900080917105882361F182E70E94D9
:10066000900081E00E94900025C0CD3051F480912F
:100670001C3F823011F487E701C088E70E94900098
:1006800015C0CA3011F48FE907C0C93011F489E7E9
:1006900003C0C83021F482E70E94900011C0CB3122
:1006A00019F40E949B000CC0CD3021F480916905A3
:1006B0008F5F04C0CC3021F480916E058093690572
:1006C00080916E05882349F090916905981305C0C3
:1006D00010926905CF910C94E702CF910895CF93C2
:1006E000DF93EC0102C00E94EC0289918111FBCFE3
:1006F000DF91CF9108950E946F0387E70C949000DB
:10070000CF93C82F82958F70982F905D9A3308F001
:10071000995F892F0E94EC02CF708C2F805D8A3305
:1007200008F0895F0E94EC0280E2CF910C94EC0209
:10073000AF92BF92CF92DF92EF92FF920F931F93EF
:10074000CF93DF93CDB7DEB761970FB6F894DEBFD6
:100750000FBECDBF81E1E2E6F2E08E010F5F1F4FD9
:10076000D80101900D928A95E1F710921E3F87E71C
:100770000E949000A12C78016E0181E1C80ED11C6D
:100780009EE2B92E8091640590916505892B69F1EF
:10079000F8948091640590916505019790936505A3
:1007A0008093640578942091760630917706F9015C
:1007B000E858F94F80812F5F3F4F243A98E339077B
:1007C00029F0309377062093760604C010927706BE
:1007D00010927606803230F08F3721F0F701EA0D63
:1007E000F11D80830E948003A394E0E1AE1212C049
:1007F00080E20E94EC028701F80180810E94EC02F5
:10080000F801B1928F01EC15FD05B1F787E70E9461
:100810009000A12C80911E3F882309F4B3CF109241
:100820001E3FFFE0FA1598F487E761960FB6F8943B
:10083000DEBF0FBECDBFDF91CF911F910F91FF9013
:10084000EF90DF90CF90BF90AF900C94900010E1AC
:100850001A1900E080E20E94EC0280E20E94EC02A1
:1008600080E20E94EC020F5F0117A0F380E20E9479
:10087000EC02EE24E394F12CEC0EFD1E870105C082
:10088000F80181918F010E94EC02802F8E198A1548
:10089000B8F3CACF80E881B914B817B880EF8AB925
:1008A0008FE782B98FEF85B988B98BB18F608BB92B
:1008B000089587E090E00E940009982F91509330AE
:1008C00048F4823039F0833049F083E08093C500EA
:1008D0008FEB07C01092C50087E703C01092C500D8
:1008E00089E08093C40083E08093CD008FEB8093F8
:1008F000CC0098E99093C10086E08093C200909369
:10090000C9008093CA00089587E090E00E94000922
:10091000982F9150933008F401C082E080936F05C6
:1009200086E090E00E940009982F9150933008F4DF
:1009300001C081E080936A0581E090E00E94000997
:10094000982F9150923008F401C081E0809368059F
:1009500085E090E00E940009982F9150923008F4B1
:1009600001C082E080931C3F84E090E00E94000977
:10097000982F9150923008F401C081E08093660571
:1009800083E090E00E940009811103C010926D0580
:1009900003C08FEF80936D0582E090E00E94000914
:1009A000811103C01092670503C08FEF8093670524
:1009B00080916A05823019F481E10E949D0280E0F5
:1009C00090E00E940009843608F401C08EE3809311
:1009D0006E051092690510927305109272051092BF
:1009E00077061092760610926505109264051092B3
:1009F00070051092740510921F3F10926B051092B3
:100A00001E3F10921D3F1092710510926C0580914F
:100A10006D05882311F05F9A01C05F98809167058A
:100A2000882311F05E9A01C05E985D985C9A85E912
:100A30000E94900080916D05882311F082E901C029
:100A400081E90C9490000E944A040E9459040C947D
:100A500084041F920F920FB60F9211240BB60F92BF
:100A60002F933F934F935F936F937F938F939F93B6
:100A7000AF93BF93EF93FF938091720590917305AD
:100A80002091C600FC01E858F94F2083019690930D
:100A90007305809372058091720590917305843A75
:100AA000984321F4109273051092720580916405A9
:100AB00090916505019690936505809364055C9A15
:100AC0008091640590916505823C954279F480910E
:100AD0006A05823031F483E10E949D028FEF80939A
:100AE0006B0580916A05833009F4179AFF91EF91A5
:100AF000BF91AF919F918F917F916F915F914F9136
:100B00003F912F910F900BBE0F900FBE0F901F9033
:100B100018951F920F920FB60F9211240BB60F92D9
:100B20008F939F93EF93FF938091CE00863D21F4A6
:100B30009FEF90931E3F0DC08D3D21F49FEF90934A
:100B40001D3F07C0833809F402C0853711F41092A5
:100B5000690590916705992389F08A3778F4909117
:100B60007005E92FF0E0EA58FA4F80839F5F909379
:100B7000700580911F3F8F5F80931F3FFF91EF9122
:100B80009F918F910F900BBE0F900FBE0F901F90F3
:100B90001895CF9320911F3F2223E1F3F8942091E1
:100BA0007405E22FF0E0EA58FA4FE0812F5F2093BE
:100BB0007405F0E0EE5FFE4FC08120911F3F215091
:100BC00020931F3F7894FC0120E003C0C31301C0B1
:100BD0002FEF31913111FACF2223E1F28C2F0E94B5
:100BE000EC028C2FCF910895CF930E94C905C82F96
:100BF00087E70E94900087E70E9490008C2FCF919A
:100C00000895CF93DF938FEF80936C0583E792E095
:100C10000E946F0310926C0587E70E94900086E99E
:100C200092E00E946F0380911F3F8823E1F3F894C4
:100C300080917405E82FF0E0EA58FA4FE0818F5F69
:100C400080937405F0E0EE5FFE4FC08180911F3FFE
:100C5000815080931F3F78948C2F80538A3018F7EF
:100C60008C2F0E94EC028C2F880FC82FCC0FCC0F3A
:100C7000C80F80911F3F8823E1F3F8948091740599
:100C8000E82FF0E0EA58FA4FE0818F5F8093740517
:100C9000F0E0EE5FFE4FD08180911F3F8150809346
:100CA0001F3F78948D2F80538A3018F78D2F0E9424
:100CB000EC02C051CD0F87E70E9490008C2FDF918E
:100CC000CF91089532992FC080910001882359F166
:100CD00080916005909161050196803223E0920732
:100CE00029F0909361058093600521C01092610501
:100CF000109260051092000180916D05809580939F
:100D00006D05882331F05F9A82E90E9490006FEFB1
:100D100005C05F9881E90E94900060E083E090E068
:100D20000E94080904C01092610510926005329B70
:100D300003C08FEF809300010895319929C08091FD
:100D40000101882329F18091620590916305019644
:100D5000803223E0920729F0909363058093620527
:100D60001BC01092630510926205109201018091E0
:100D70006705809580936705882319F05E9A6FEF69
:100D800002C05E9860E082E090E00E94080904C022
:100D90001092630510926205319B03C08FEF809320
:100DA00001010895CF93833009F442C030F48130BB
:100DB00069F0823009F078C021C0853009F45AC04A
:100DC00008F449C0863009F06FC063C080916F0598
:100DD000813021F480E294E00E946F0380916F05DE
:100DE000823021F489E294E00E946F0380916F05C4
:100DF000833009F059C082E394E017C080916A05FE
:100E0000813021F48AE694E00E946F0380916A05A4
:100E1000823021F483E794E00E946F0380916A0599
:100E2000833009F041C080E894E00E946F033CC029
:100E300080916E05CAE06C2F0E94F408805D0E94CC
:100E4000EC0280916E056C2F0E94F408892F805D62
:100E50000E94EC0229C080917505813021F48EEE4C
:100E600094E00E946F03809175058230E9F488EF69
:100E700094E0DBCF80911C3F813021F48DEC92E037
:100E80000E946F0380911C3F823071F484ED92E0E8
:100E9000CCCF80916605813021F48DEC92E00E94E8
:100EA0006F0380916605F0CF87E7CF910C94900097
:100EB000CF93DF9310926D055F9881E90E949000B7
:100EC000809168058093750581E0809368058EEDBB
:100ED00092E00E946F0389EE92E00E947B0389EF0B
:100EE00092E00E947B0389E093E00E947B0387E706
:100EF0000E94900089E193E00E947B038BE293E0E3
:100F00000E946F0381E00E94D20680E493E00E9479
:100F10006F0382E00E94D20685E593E00E946F0392
:100F200083E00E94D2068AE693E00E946F0384E089
:100F30000E94D2068FE793E00E946F0385E00E9433
:100F4000D20684E993E00E946F0386E00E94D206F5
:100F500087E70E94900089EA93E00E947B0382EE7B
:100F600093E00E946F0388E094E00E94F405C82F8C
:100F7000883709F4E1C0813319F0813609F0E2C005
:100F800081E194E00E947B038CE194E00E947B036A
:100F900085E294E00E947B038EE294E00E947B0352
:100FA00089E394E00E946F0387E594E00E94F405D2
:100FB000682F605360936F0587E090E00E940809F6
:100FC000C23319F58BE594E00E947B0386E694E03A
:100FD0000E947B038FE694E00E947B038CE794E001
:100FE0000E947B0389E394E00E946F0387E594E00D
:100FF0000E94F405682F605360936A0586E090E0D4
:101000000E940809C33381F504C0C13609F09DC0B0
:10101000D9CF88E894E00E947B0385EA94E00E949F
:101020006F0380ED94E00E94C905880FD82FDD0F73
:10103000DD0FD80FD05ED0936E0580ED94E00E9456
:10104000C90580538D0F80936E0587E70E9490003D
:1010500087E70E94900060916E0580E090E00E941A
:101060000809C43321F504C0C13609F071C0D1CFDD
:101070008BED94E00E947B038AEE94E00E947B0358
:1010800084EF94E00E947B038CEF94E00E946F0356
:101090008AE195E00E94F405682F6053609375051E
:1010A00081E090E00E940809C53321F504C0C136F3
:1010B00009F051C0DDCF8DE195E00E947B0387E30D
:1010C00095E00E947B038EE395E00E947B038CEF0A
:1010D00094E00E946F038AE195E00E94F405682F76
:1010E000605360931C3F85E090E00E940809C6337E
:1010F00009F503C0C13691F5DECF88E495E00E9482
:101100007B0387E395E00E947B038EE395E00E94DA
:101110007B038CEF94E00E946F038AE195E00E94CC
:10112000F405682F60536093660584E090E00E94A8
:10113000080902C0C13609F310921D3FDF91CF911B
:101140000C942305823309F43DCFC33309F461CFF6
:10115000C43309F48DCFC53309F4ADCFC63361F77D
:10116000CCCF0E942305789480911F3F81110E946B
:10117000A40280911E3F81110E94980380911D3F1F
:1011800081110E9458078091640590916505892B13
:1011900029F1F894809164059091650501979093E9
:1011A00065058093640578942091760630917706E2
:1011B000F901E858F94F80812F5F3F4F243A98E3B7
:1011C000390729F0309377062093760604C01092F1
:1011D0007706109276060E94EC02C6CF5C980E94B9
:1011E00062060E949D06C0CF991B79E004C0991F3A
:1011F000961708F0961B881F7A95C9F78095089571
:10120000F999FECF92BD81BDF89A992780B50895CE
:10121000262FF999FECF92BD81BDF89A019700B4AF
:10122000021639F01FBA20BD0FB6F894FA9AF99A4F
:081230000FBE0895F894FFCFF2
:10123800FFFF005F26002569000039383736353052
:1012480034333231483A44004D27425E512A472808
:101258004F29434956004B2B587C55004E004C579C
:101268003D5041594A53453F52545A60003B000093
:1012780046002F2321220000000024666D6A776C47
:1012880062766B7971647A687463737265706E756F
:101298006F7867612D2E2C00000000000000000010
:1012A8000000002008000000000A0D0900000000EE
:1012B800000071424341480402171D1F1B25646248
:1012C80063400D11100F0E0C0B0A0908133BFF2E7B
:1012D800FF35FF30182014343E1C122132242C16FE
:1012E8002A1E2F1A36333728222D263138FFFFFFC2
:1012F800FF0139614E57535A496055054B504D4AC5
:101308005C5E5B525958565D4F4C5F5154FF27FF46
:10131800FF727167447165717145717146717171C0
:101328003F717171717166717171713C3A710671B9
:101338007171717171717171717171717171717195
:101348007171717171717171717171717171717185
:101358007171717171717171717171717171717175
:101368007171717171717171717171717171717165
:1013780071717147717171710771717171717171E9
:10138800717171717171713D71713971717123155B
:1013980071712E2E2E2E2E2E2E2E2E2E2E2E2E2EDF
:1013A8002E2E0023206F66204C696E6573207065B1
:1013B800722053686565742C206265666F726520BB
:1013C80053746F703A00656E7465722061732032D1
:1013D80020446967697473204E756D6265722C20AC
:1013E800303020666F7220636F6E74696E756F752A
:1013F80073207072696E74696E673A20002D2D3EF5
:10140800204352002D2D3E204352204C4600466971
:10141800726D77617265205600312E302032382D7A
:101428004665622D3230313400496E7465726661EA
:101438006365205365747570002D2D2D2D2D2D2D70
:101448002D2D2D2D2D2D2D2D0043757272656E7449
:101458002053657474696E67733A00203120204206
:1014680061756420526174652020202020202000AE
:101478002032202048616E647368616B65202020EB
:101488002020202000203320204C696E65732070B6
:101498006572205061676520200020342020436851
:1014A8006172616374657220536574202020002086
:1014B80035202043522066726F6D20486F73742068
:1014C8002020200020362020435220746F20486FAF
:1014D8007374202020202020002050726573732010
:1014E80028312920746F2028362920746F206368DA
:1014F800616E6765206F6E65206974656D2C2028A4
:10150800612920746F206368616E676520616C6C67
:101518002C002028782920746F206C65617665205E
:10152800736574757020776974686F757420636863
:10153800616E6765733A200031323334353661782D
:10154800004261756420526174653A0020312020A0
:10155800313230300020322020393630300020330C
:1015680020203131353230300020507265737320BD
:1015780028312920746F2028332920746F2073653F
:101588006C6563743A20003132330048616E6473CD
:1015980068616B653A00203120204E6F6E6500202F
:1015A800322020584F4E2F584F46460020332020D7
:1015B8005254532F435453004C696E657320706521
:1015C8007220506167652C206265666F72652053D2
:1015D800746F703A0020456E746572206173203212
:1015E800206469676974206E756D6265722C20309D
:1015F8003020666F72206E6F2053746F703A20002F
:1016080030313233343536373839004368617261E6
:1016180063746572205365743A0020312020415369
:1016280043494900203220207261770020507265BA
:10163800737320283129206F722028322920746F73
:101648002073656C6563743A200031320043522080
:1016580066726F6D20486F7374205472616E736C7C
:101668006174696F6E3A00203120204352002032A5
:1016780020204352204C4600435220746F20486F6C
:101688007374205472616E736C6174696F6E3A0082
:00000001FF
